:020000040800F2
:10000000A8070020050400089D0100089F010008C2
:10001000A3010008A7010008AB01000800000000D0
:10002000000000000000000000000000AF01000818
:10003000B101000800000000B3010008B50100088C
:100040001F0400081F0400081F0400081F04000804
:100050001F0400081F0400081F0400081F040008F4
:100060001F0400081F0400081F0400081F040008E4
:100070001F0400081F0400081F0400081F040008D4
:100080001F0400081F0400081F0400081F040008C4
:100090001F0400081F0400081F0400081F040008B4
:1000A0001F0400081F0400081F0400081F040008A4
:1000B0001F0400081F0400081F0400081F04000894
:1000C0001F0400081F0400081F0400081F04000884
:1000D0001F0400081F0400081F0400081F04000874
:1000E000894E00081F0400081F04000800F002F8F1
:1000F00000F03FF80AA090E8000C82448344AAF183
:100100000107DA4501D100F034F8AFF2090EBAE880
:100110000F0013F0010F18BFFB1A43F0010318473B
:100120005074000070740000103A24BF78C878C181
:10013000FAD8520724BF30C830C144BF04680C60ED
:10014000704700000023002400250026103A28BF35
:1001500078C1FBD8520728BF30C148BF0B60704739
:10016000642904F01787002070471FB51FBD10B524
:1001700010BD05F0CFF81146FFF7F7FF00F00CF9BE
:1001800005F0EDF803B4FFF7F2FF03BC01F016FA37
:1001900030BF72B662B680F308887047704700BF00
:1001A000FEE700BFFEE700BFFEE700BFFEE77047C7
:1001B00070477047704700000CB500200190009018
:1001C0006C48006840F480306A49086000BF6948A4
:1001D000006800F4003000900198401C01900098E5
:1001E00018B90198B0F5A06FF1D16248006800F429
:1001F000003010B10120009001E000200090009834
:10020000012843D15C48006840F010005A4908605A
:100210000846006820F0030008600846006840F0C7
:1002200002000860534840685249486008464068E8
:1002300048600846406840F480604860084640686E
:1002400020F47C1048600846406840F4E81048609C
:100250000846006840F08070086000BF45480068AC
:1002600000F000700028F9D04248406820F00300F8
:10027000404948600846406840F00200486000BFBE
:100280003C48406800F00C000828F9D10CBD10B5BE
:10029000FFF792FF10BD10B53648006840F001002E
:1002A000344908600846406834490840314948608C
:1002B00008460068324908402E4908600846006830
:1002C00020F4802008600846406820F4FE00486062
:1002D0004FF41F008860FFF7DAFF4FF000602949F4
:1002E000086010BD10B5002100200022214B5B6882
:1002F00003F00C0121B1042906D0082928D107E018
:10030000214B224C236027E01F4B204C236023E02D
:10031000184B5B6803F47010164B5B6803F4803273
:10032000022303EB904022B9194B4343174C23603F
:100330000DE0104B5B6803F4003323B1144B4343CF
:10034000124C236003E0104B4343104C236003E046
:100350000D4B0E4C236000BF00BF064B5B68C3F320
:1003600003130C4CE15C094B1B68CB40074C23602A
:1003700010BD000000100240002002400000FFF805
:10038000FFFFF6FE08ED00E000127A0000000020FA
:1003900000093D00040000200121144800F083F909
:1003A0000121134800F07FF9022000F03BFF00F02C
:1003B000C9FE01F08FF84FF4165001F00EF901F06C
:1003C00061F901F0B9FD01F0CBFD01F0BFF80CE0DF
:1003D0000849094801F028FF0748006805F0CAFFEE
:1003E0000446214605A004F095FDF1E70004300025
:1003F00000023000A00000209C00002025640D0AAF
:10040000000000000948804709480047FEE7FEE772
:10041000FEE7FEE7FEE7FEE7FEE7FEE7FEE7FEE7B4
:1004200004480549054A064B70470000970200083A
:10043000ED000008A8010020A8070020A803002064
:10044000A803002010B50446CC48844208D10121FD
:10045000042000F031FD0021042000F02DFD46E0D5
:10046000C748844208D10121082000F025FD002161
:10047000082000F021FD3AE0C248844208D1012161
:10048000102000F019FD0021102000F015FD2EE0D5
:10049000BD48844208D10121202000F00DFD00213B
:1004A000202000F009FD22E0B848844208D1012153
:1004B000402000F001FD0021402000F0FDFC16E08E
:1004C000B348844208D10121802000F0F5FC0021CE
:1004D000802000F0F1FC0AE0AE48844207D10121FF
:1004E000801500F0E9FC0021A01500F0E5FC10BD2E
:1004F00010B50121084600F0DFFC0021012000F0CA
:10050000DBFC10BD2DE9F04102460025002600204D
:1005100000230024002791F803C00CF00F0591F888
:1005200003C00CF0100CBCF1000F03D091F802C016
:100530004CEA050591F800C0BCF1000F31D01468F9
:1005400000202BE04FF0010C0CFA00F3B1F800C0D2
:100550000CEA03069E4220D183004FF00F0C0CFAE8
:1005600003F7BC4305FA03FC4CEA040491F803C00A
:10057000BCF1280F06D14FF0010C0CFA00FCC2F8B8
:1005800014C00AE091F803C0BCF1480F05D14FF048
:10059000010C0CFA00FCC2F810C0401C0828D1D392
:1005A0001460B1F800C0BCF1FF0F34DD54680020C6
:1005B0002EE000F1080C4FF0010808FA0CF3B1F836
:1005C00000C00CEA03069E4221D183004FF00F0CBD
:1005D0000CFA03F7BC4305FA03FC4CEA040491F857
:1005E00003C0BCF1280F05D100F1080C08FA0CF883
:1005F000C2F8148091F803C0BCF1480F07D100F194
:10060000080C4FF0010808FA0CF8C2F81080401CE2
:100610000828CED35460BDE8F0814FF6FF71018009
:10062000022181700421C170704702460020936846
:100630000B400BB1012000E00020704701468868A4
:1006400080B2704702460020D3680B400BB10120F6
:1006500000E0002070470146C86880B27047016121
:100660007047416170470AB1016100E04161704724
:10067000C16070474FF480320A43826181618261B8
:1006800082698269704702460020434B18684FF622
:100690008073184040EA021008433F4B18607047CF
:1006A0003E49C8617047F0B50A4600230024002186
:1006B000002500F00046B6F1004F02D1364EF16938
:1006C00001E0354E7168C0F3034583B200F4401673
:1006D000B6F5401F08D121F070612F4E766826F0E4
:1006E00070662D4F7E6012E000F48016B6F5801F14
:1006F00006D1032606FA05F4A14341F0706106E035
:10070000460D360103FA06F6B14341F0706122B19D
:10071000460D360103FA06F6314300F00046B6F105
:10072000004F02D11C4EF16101E01B4E7160F0BD23
:1007300030B500228B071C0F0F2303FA04F2164B6F
:1007400008338C1053F824309343134C08348D1025
:1007500044F8253023468C1053F824308C07240F9E
:1007600000FA04F423430C4C08348D1044F825306F
:1007700030BD0A49DC3108607047000000080140C4
:10078000000C01400010014000140140001801401D
:10079000001C0140002001400000014000002042F8
:1007A00010B50446FB48844209D10121880300F0BA
:1007B00083FB00214FF4804000F07EFB32E0F648DE
:1007C000844209D10121480400F083FB00214FF449
:1007D000003000F07EFB25E0F048844209D1012181
:1007E000880400F076FB00214FF4802000F071FBBC
:1007F00018E0EB48844209D10121C80400F069FBEC
:1008000000214FF4002000F064FB0BE0E548844237
:1008100008D10121080500F05CFB00214FF4801095
:1008200000F057FB10BD2DE9F04786B005460E4697
:100830000024A24600BFA1460027B08900B100BF36
:100840002F462C8A4CF6FF700440F08804432C821B
:10085000AC894EF6F3100440B088318908437189A1
:1008600008430443AC81AC8A4FF6FF400440B08992
:100870000443AC8201A800F098FAC648874202D12E
:10088000DDF810A001E0DDF80CA0A88900F400401C
:1008900040B10AEBCA0000EB0A1031684900B0FB16
:1008A000F1F807E00AEBCA0000EB0A103168890092
:1008B000B0FBF1F86420B8FBF0F0040120096421DA
:1008C00001FB1089A88900F4004040B1322000EB00
:1008D000C900B0FBF1F000F00700044308E032204B
:1008E00000EB09106421B0FBF1F000F00F000443AD
:1008F0002C8106B0BDE8F0874FF41651016000214D
:100900008180C18001810C2141810021818170475A
:1009100010B502460020108A4FF2FF0318400B88E2
:100920004C8823438C882343CC882343184310826C
:1009300010BD0021018041808180C180704721B1BC
:10094000828942F40052828104E082894DF6FF736D
:100950001A4082817047F0B5034600240026002526
:10096000002040F66A17B94200D100BF1846C1F313
:10097000421401F01F06012707FA06F5012C01D1E8
:100980000C3004E0022C01D1103000E014301AB118
:1009900007682F43076002E00768AF430760F0BDB8
:1009A0001AB1838A0B43838202E0838A8B4383825A
:1009B0007047028A4FF6F0731A400282028A0A4395
:1009C0000282704782894FF2FF731A4082818289C6
:1009D0000A438281704721B1828942F002028281FA
:1009E00004E082894FF6FD731A4082817047028AC3
:1009F0004FF6DF731A400282028A0A43028270476E
:100A000021B1028A42F48042028204E0028A4BF65B
:100A1000FF731A4002827047C1F308028280704758
:100A200001468888C0F308007047818941F00101C0
:100A300081817047028BD2B20283028B42EA01228B
:100A400002837047028B02F47F420283028B0A43C7
:100A50000283704721B1828A42F02002828204E040
:100A6000828A4FF6DF731A408282704721B1828AF0
:100A700042F01002828204E0828A4FF6EF731A403D
:100A80008282704721B1828A42F00802828204E0A9
:100A9000828A4FF6F7731A408282704721B18289A9
:100AA00042F40042828103E08289C2F30E02828115
:100AB000704721B1828A42F40062828204E0828A15
:100AC0004FF2FF731A4082827047828A4FF6FB739F
:100AD0001A408282828A0A438282704721B1828AC6
:100AE00042F00202828204E0828A4FF6FD731A40CD
:100AF0008282704702460020B1F5007F00D100BF1E
:100B000013880B400BB1012000E00020704701F476
:100B10000072B2F5007F00D100BFCA430280704767
:100B200070B50246002400230025002040F66A1616
:100B3000B14200D100BFC1F3421501F01F030126ED
:100B400006FA03F3012D02D19689334006E0022D07
:100B500002D1168A334001E0968A33400C120126F6
:100B600006FA04F41688344013B10CB1012000E0F9
:100B7000002070BD10B50022002340F66A14A14287
:100B800000D100BF0A1201249440A3B2DC430480C8
:100B900010BD000000380140004400400048004003
:100BA000004C004000500040DF48006840F0010069
:100BB000DD49086008464068DC490840DA49486079
:100BC00008460068DA490840D749086008460068C6
:100BD00020F4802008600846406820F4FE00486049
:100BE0004FF41F0088607047CF49096821F48031B5
:100BF000CD4A11601146096821F480211160B0F5D9
:100C0000803F03D0B0F5802F0ED106E0C6490968B9
:100C100041F48031C44A116007E0C349096841F4D6
:100C2000A021C14A116000E000BF00BF704710B5AD
:100C300001460022002300204A11012A02D1BA4CA9
:100C4000236806E0022A02D1B74C236A01E0B64CC1
:100C5000636A01F01F02012494401C400CB1012082
:100C600000E0002010BD38B50020009000240025D1
:100C700000BF3120FFF7DBFF05460098401C0090C5
:100C80000098B0F5A06F01D0002DF2D03120FFF711
:100C9000CEFF08B1012400E00024204638BD014603
:100CA0000020A14A106820F0F80040EAC10010605E
:100CB0007047A04908607047024600209A4B586868
:100CC00020F47C1042EA01031843974B58607047A8
:100CD00098490866704701460020934A506820F002
:100CE00003000843506070478F48406800F00C00D4
:100CF0007047014600208C4A506820F0F0000843FD
:100D00005060704701460020874A506820F4E06038
:100D100008435060704701460020834A506820F421
:100D2000605040EAC1005060704729B17E4A527A53
:100D300002437D4B5A7204E07B4A527A82437A4BDB
:100D40005A7270477B49D8310860704701460020CD
:100D5000754A506820F440400843506070470021B5
:100D6000714A20321170704A82F82010012802D096
:100D700004280AD104E001216B4A2032117005E0F9
:100D80000521694A2032117000E000BF00BF7047A2
:100D90006949086070476449096A0143624A1162FF
:100DA0007047654944390860704730B5002100221A
:100DB000002400235C4D6D6805F00C0121B104296D
:100DC00005D0082923D105E05C4D056022E05B4D8C
:100DD00005601FE0544D6D6805F47012524D6D684A
:100DE00005F48034022505EB92421CB9544D55435D
:100DF00005600BE04C4D6D6805F400351DB1504D9C
:100E00005543056002E04D4D5543056002E04B4DF2
:100E1000056000BF00BF444D6D6805F0F001090991
:100E2000484D6B5C0568DD4045603F4D6D6805F4DD
:100E3000E061090A434D6B5C4568DD4085603A4DD1
:100E40006D6805F46051C90A3E4D6B5C4568DD4034
:100E5000C560354D6D6805F44041890B3A4D6B5CBA
:100E6000C568B5FBF3F5056130BD29B12E4A52695D
:100E700002432D4B5A6104E02B4A526982432A4BAC
:100E80005A61704729B1284A92690243264B9A61F8
:100E900004E0254A92698243234B9A61704729B145
:100EA000214AD2690243204BDA6104E01E4AD2692A
:100EB00082431D4BDA61704729B11B4AD268024355
:100EC000194BDA6004E0184AD2688243164BDA60A4
:100ED000704729B1144A12690243134B1A6104E0A6
:100EE000114A12698243104B1A6170471249403906
:100EF000086070470F49C86470470B49C871704754
:100F00000948406A40F080700749486270470146CE
:100F10000020054A92680A400AB1012000E0002042
:100F20007047014988727047001002400000FFF8C6
:100F3000FFFFF6FE000042428004424200127A00A7
:100F400000093D0014000020240000203149014325
:100F5000314A1160704770B5002100230F22C47818
:100F600004B32D4C246804F4E064C4F5E064210A61
:100F7000C1F10403CA40447804FA03F184781440B0
:100F800021430901254C0678A155047804F01F057A
:100F90000124AC4005786D11AD0005F1E025C5F8E0
:100FA000004109E0047804F01F050124AC401C4D09
:100FB0000678761145F8264070BD1A4A0A40024369
:100FC000154B1B1F1A60704739B1134A121D126866
:100FD0000243114B1B1D1A6006E00F4A121D1268D6
:100FE00082430D4B1B1D1A607047042808D14FF037
:100FF000E021096941F004014FF0E022116107E0AE
:101000004FF0E021096921F004014FF0E022116165
:10101000704700000000FA050CED00E000E400E07D
:1010200080E100E080FFFF1F002044490860091DA7
:101030000860091D0860091D086041483F491431D6
:101040000860704700213D498279002A3AD00A465B
:10105000126803689A430B461A600A1D12680368F7
:101060009A430B1D1A60027911440A6803681A43F7
:101070000A60324A0832126803689A432F4B0833D9
:101080001A601A1D126803689A432C4B0C331A60BD
:101090004279102A0ED11A1F126803681A43274B8F
:1010A00008331A601A1D126803681A43234B0C3365
:1010B0001A600DE02149427911440A6803681A4315
:1010C0000A6005E0027911440A6803689A430A60DD
:1010D00070470021016001710C2141710021817173
:1010E00070471649103109680143144A10321160E3
:1010F000704701460020114A143212680A400AB1B2
:10110000012000E0002070470C491431086070474E
:10111000014600200022094B1B6803EA0102074B2D
:1011200014331B680B4013B10AB1012000E000200A
:101130007047024914310860704700000004014004
:10114000FFFF0F0010B56FF00400FFF74EFF2E48B1
:1011500000682E49B0FBF1F02D4908700846007870
:1011600000EB4001C1EBC0104FF6FF7101EAC00077
:101170002849088010BD0146254A12784A434FF09D
:10118000E0235A6100229A611A46126942F0010274
:101190001A6100BF4FF0E022106900F001021AB19D
:1011A00000F48032002AF5D04FF0E022126922F0DC
:1011B00001024FF0E0231A6100229A617047014654
:1011C000144A12884A434FF0E0235A6100229A6180
:1011D0001A46126942F001021A6100BF4FF0E02284
:1011E000106900F001021AB100F48032002AF5D033
:1011F0004FF0E022126922F001024FF0E0231A6161
:1012000000229A61704700000000002000127A005E
:10121000280000202A000020A34A0A400243A34BD2
:101220001A6070470146072323EA010212029F4B0E
:101230001B1D18684FF6FF0318409D4B18431043C1
:101240009A4B1B1D186070472DE9F04107468846F0
:1012500014461D462846FFF7E5FFC5F1040007FACE
:1012600000F60F20284100EA0800064306F00F06AA
:10127000E21704EBD2625211920002F1E022D2F89E
:1012800000212146E31704EBD3635B11A4EB431C5D
:10129000012303FA0CF31A432046E31704EBD3634C
:1012A0005B119B0003F1E023C3F800218148005D3E
:1012B00040EA06107F490855BDE8F08170B5044644
:1012C0000B46CE1701EB9676C6F38700CE1701EBDF
:1012D0009676B610A1EB8606B606350E764B9B6960
:1012E00043F00103744EB3614FEAB63353F8203034
:1012F0000F26AE40B343714E46F82030334653F8C4
:10130000203004FA05F61E436C4B43F820606C4B0A
:101310001B6801268E403343694E336002F001039F
:1013200043B1674B0C331B6801268E403343644E38
:101330000C36336002F0020343B1614B08331E6880
:1013400001238B401E435E4B08331E6070BD00B509
:10135000002059490861C860142048610020886154
:10136000C8610846006840F001000860084640680F
:1013700054490840504948600846006852490840AE
:101380004D4908600846006820F48020086008463F
:10139000406820F4FE0048600020886000214FF083
:1013A0000060FFF739FF00BD10B540480830006805
:1013B00040F004003D49083108603F48C06940F0F2
:1013C00080503D49C8614148406840F480703F49C1
:1013D00048600846006840F004000860084600685D
:1013E00040F002000860FEF7D3FE10BD3048001D3B
:1013F0002E49091D08607047014649062E4A926928
:1014000042F001022C4B9A612C4A083A526822F0B1
:10141000E0622A4B083B5A601A4652680A435A60F7
:10142000704730B504460025FFF791FF2248006859
:1014300040F480302049086000BF1F480068400C1D
:101440000028FAD04FF480601B494860A01EC4B247
:101450000846406840EA844048600846406840F4D6
:10146000803048601A48006840F03200184908602F
:101470001148006840F080700F49086000BF0E48B6
:101480000068400E0028FAD00B48406840F0020087
:101490000949486005E008484068C0F3870505F041
:1014A0000305022DF7D130BD80FFFF1F08ED00E0DE
:1014B0000000FA0500E400E00010024008000140CE
:1014C000000401400000FFF8FFFFF6FE007000403E
:1014D0000020024008B501211020FFF7D3FC4FF493
:1014E0000050ADF8000010208DF8030003208DF8A7
:1014F000020069461348FFF705F84FF40051114800
:10150000FFF7ADF808BD10B504460F480068401C51
:101510000D490860A04213D14FF400510948FFF76C
:1015200084F828B94FF400510648FFF798F804E012
:101530004FF400510348FFF794F800200249086077
:1015400010BD0000001001402C0000201FB501213B
:101550000846FFF797FC01210420FFF793FC4FF4A6
:101560008050ADF80C0048208DF80F0003A91248F8
:10157000FEF7C8FF0C210020FFF7DAF84FF4805087
:10158000019000208DF808000C208DF80900012042
:101590008DF80A0001A8FFF755FD28208DF80000FE
:1015A00002208DF8010001208DF802008DF8030063
:1015B0006846FFF7D0FC1FBD00080140014600BF90
:1015C000704700BF2D4A128802F04002002AF9D06D
:1015D000C2B22A4B1B1D1A80704710B586B0044654
:1015E00001210420FFF74EFC01218803FFF74AFC8C
:1015F0004FF40070ADF8140003208DF81600182089
:101600008DF8170005A91E48FEF77CFF4FF4806097
:10161000ADF8140004208DF8170005A91848FEF74E
:1016200071FF25208DF8000000208DF801000220B8
:101630008DF8020001208DF803006846FFF78BFC4F
:1016400001940020ADF80800ADF80A00ADF80C00D8
:10165000ADF810000C20ADF80E0001A90748FFF707
:10166000E2F8012240F225510448FFF774F9012104
:101670000248FFF764F906B010BD000000380140D1
:101680000008014008B501210820FFF7FBFB4FF4DB
:101690004070ADF8000010208DF8030003208DF895
:1016A00002006946F748FEF72DFF08BD10B5F54862
:1016B000001D006820F0F000F249091D086008468E
:1016C000006840F0300008600120EF490860EF48F2
:1016D000D0F8240108B9002010BD0120EA49091FF3
:1016E0000860FFF748FD0020E849C1F8A401E6487A
:1016F0008038006808B10020EEE70120FFF73BFDCD
:101700000020E149091F08600120E5E710B5DD4828
:10171000001D006820F0F000DA49091D0860084645
:10172000006840F0300008600020D749091F0860B9
:10173000D649C1F8A4010120FFF71DFD0120D249BF
:10174000091F0860D149C1F8A401FFF714FD10BDBD
:1017500010B50024CB48001D006820F0F000C949F6
:10176000091D08600846006840F0800008600120FC
:10177000C5490860FFF7FFFC0120C449C1F8A0017A
:10178000FFF7F9FC0AE0601CC4B2322C03DDFFF75E
:10179000BDFF002010BD0120FFF7EDFCBA488038E6
:1017A00000680028EFD1B849091F08600120F1E75F
:1017B00010B50020B449091F0860B248001D006838
:1017C00020F0F000AF49091D08600846006840F0AD
:1017D000300008600020AD49C1F8A4010120FFF7E6
:1017E000CAFC0120A849091F0860FFF7C4FC0020BB
:1017F000A649C1F8A00110BD10B50020A249091FDB
:101800000860A048001D006820F0F0009D49091DF7
:1018100008600846006840F03000086001209B49DD
:10182000C1F8A401FFF7A7FC01209749091F086030
:10183000FFF7A1FC00209549C1F8A00110BD70B5CB
:1018400004469048001D006820F0F0008D49091DF5
:1018500008600846006840F03000086000208A49AF
:10186000091F0860002516E0E00987490860600646
:10187000040E0120FFF77FFC01208449C1F8A0017C
:10188000FFF779FC00208049091F08600120FFF75D
:1018900072FC681CC5B2082DE6DB70BD2DE9F04175
:1018A00005460E4617469846FFF700FF10B901207F
:1018B000BDE8F0816906080EFFF7C1FFFFF748FF9A
:1018C00018B9FFF723FF0120F2E73046FFF7B7FF13
:1018D000FFF73EFF00240BE018F80400FFF7AFFF0E
:1018E000FFF736FF18B9FFF711FF0020E0E7641C8F
:1018F000BC42F1DBFFF70AFF0020D9E770B50546CF
:1019000000246048001D006820F0F0005D49091DBA
:1019100008600846006840F080000860002617E074
:1019200000205949091F08600220FFF724FC01200C
:101930005649C1F8A0016006040E5348803800687B
:1019400008B1601CC4B20220FFF715FC701CC6B2BF
:10195000082EE5DB15B1FFF72BFF01E0FFF74CFF89
:10196000204670BD2DE9F04106460F4614461D463F
:10197000FFF79CFE10B90120BDE8F0817106080E4A
:10198000FFF75DFFFFF7E4FE18B9FFF7BFFE012088
:10199000F2E73846FFF753FFFFF7DAFEFFF786FE60
:1019A000012101EB4601C8B2FFF749FFFFF7D0FE66
:1019B0000DE0012C04D10020FFF7A0FF287003E008
:1019C0000120FFF79BFF28706D1C601EC4B2002C25
:1019D000EFD1FFF79BFE0020CEE770B505460E461F
:1019E0000024FFF763FE2846FFF729FF641CFFF77A
:1019F000AFFE3046FFF723FF641CFFF7A9FEFFF799
:101A000055FE691CC8B2FFF71AFF641CFFF7A0FE61
:101A10000020FFF773FF0446FFF778FE204670BDF5
:101A20002DE9F0410746884615461E460024FFF77B
:101A30003DFE3846FFF703FFFFF78AFE4046FFF7FB
:101A4000FEFEFFF785FEFFF731FE791CC8B2FFF7F7
:101A5000F6FEFFF77DFE00BF0DE0681EA04204D039
:101A60000120FFF74BFF305503E00020FFF746FF52
:101A70003055601CC4B2AC42EFDBFFF747FE204696
:101A8000BDE8F081000C0140A48121420080214288
:101A90002DE9F04180460D4616461F460024FFF70B
:101AA00005FE4046FFF7CBFEFFF752FE2846FFF744
:101AB000C6FEFFF74DFE00BF06E0385DFFF7BFFE34
:101AC000FFF746FE601CC4B2B442F6DBFFF71EFE11
:101AD0000120BDE8F08170B505460E46144631463A
:101AE0002846FFF77AFF2070012070BD37B5044605
:101AF0000D4602AB012229462046FFF7C9FF3EBD35
:101B00002DE9F8430746884614461D46089E6A4656
:101B100041463846FFF7DFFF28B3601CFF2101FA7A
:101B200000F0C4F108012944491EFF220A41104374
:101B300000F0FF09C5F1080006FA00F0C6B2C4F1D2
:101B4000070006419DF8000000EA090000909DF89A
:101B50000000304300909DF8002041463846FFF7D2
:101B6000C5FFBDE8F8830020FBE7F8B506460F4641
:101B700014461D466A4639463046FFF7ACFF2DB184
:101B80000120A0409DF80010084305E00120A0407E
:101B90009DF8001021EA0000C0B200909DF80020DE
:101BA00039463046FFF7A2FFF8BD0000014691F923
:101BB0000020002A01DD00201EE091F90020002A0B
:101BC00001DA042018E091F90120002A01DD01204A
:101BD00012E091F90120002A01DA05200CE091F9C8
:101BE0000220002A01DD022006E091F90220002AED
:101BF00001DA062000E00720704770B50546284648
:101C0000FFF7D4FF0446E81CFFF7D0FF44EAC0000A
:101C100084B2A81DFFF7CAFF44EA801084B22046B0
:101C200070BD70B588B002A905A802F000F804469E
:101C3000032C3CD101A801F06EFA059804F0D6FB04
:101C40000646019904F032FC054604F093FB05902A
:101C5000069804F0CBFB0646019904F027FC0546E4
:101C600004F088FB0690079804F0C0FB0646019933
:101C700004F01CFC054604F07DFB079005A802F06B
:101C8000E6FA684601F064FABDF80010029848438D
:101C90000290BDF80010039848430390BDF800106F
:101CA00004984843049002A802F064FB00BF08B007
:101CB00070BD2DE9F04304460D46DDE907670021BC
:101CC000012041E0DFF8ACC53CF81080A0F1010C28
:101CD000DFF8A09529F81C8009F1160C3CF810904B
:101CE000A0F1010CDFF88C8508F1160828F81C908B
:101CF00008F1160C3CF81090A0F1010C08F1160840
:101D000028F81C9008F1160C3CF81090A0F1010C7A
:101D100008F1160828F81C9008F1160C3CF81090F1
:101D2000A0F1010C08F1160828F81C9008F1160C17
:101D30003CF81090A0F1010C08F1160828F81C904E
:101D400000F1010C0CF0FF000A28BBDBDFF824C512
:101D5000ACF81240ACF82850ACF83E20ACF8543047
:101D6000ACF86A60ACF880700021002008E0DFF871
:101D700004C53CF910C0614400F1010C0CF0FF00F7
:101D80000A28F4DB4FF00A0C91FBFCFC0FFA8CFCE8
:101D9000DFF8E084A8F814C0002100200AE0DFF892
:101DA000D4C40CF1160C3CF910C0614400F1010CD4
:101DB0000CF0FF000A28F2DB4FF00A0C91FBFCFC50
:101DC0000FFA8CF8DFF8ACC4ACF82A8000210020B0
:101DD0000AE0DFF8A0C40CF12C0C3CF910C06144FF
:101DE00000F1010C0CF0FF000A28F2DB4FF00A0CA6
:101DF00091FBFCFC0FFA8CF8DFF878C4ACF840805B
:101E0000002100200AE0DFF86CC40CF1420C3CF920
:101E100010C0614400F1010C0CF0FF000A28F2DB55
:101E20004FF00A0C91FBFCFC0FFA8CF8DFF844C46D
:101E3000ACF85680002100200AE0DFF838C40CF12D
:101E4000580C3CF910C0614400F1010C0CF0FF008B
:101E50000A28F2DB4FF00A0C91FBFCFC0FFA8CF81D
:101E6000DFF810C4ACF86C80002100200AE0DFF835
:101E700004C40CF16E0C3CF910C0614400F1010C7B
:101E80000CF0FF000A28F2DB4FF00A0C91FBFCFC7F
:101E90000FFA8CF8DFF8DCC3ACF88280BDE8F08381
:101EA00038B50446032302226B21D0200094FFF7AB
:101EB00027FE38BD38B50446022304221B21D0205A
:101EC0000094FFF71DFE38BD38B5044602230422F6
:101ED0001C21D0200094FFF713FE38BD10B5044636
:101EE000234606226B21D020FFF73FFE10BD10B520
:101EF000E14B01227521D020FFF792FDDE480078EA
:101F000010BD10B5FFF7F3FF682801D1012010BD07
:101F10000020FCE710B50446234605226A21D020A4
:101F2000FFF723FE10BD10B50446234601223721DA
:101F3000D020FFF71AFE10BD10B50220FFF7B0FF4A
:101F40000320FFF7B7FF0020FFF7BEFF0020FFF7D9
:101F5000C5FF0020FFF7DEFF0020FFF7E4FF10BD04
:101F600038B5002000906B46012275216820FFF7EC
:101F7000F9FCC2A002F0CEFF9DF8000068280ED048
:101F800000BFC748006800F4E060C6490843001D70
:101F9000C3490860BFF3408F00BF00BFFEE700F0F9
:101FA000F8FD00BB782000F05CFA10B9B3A002F095
:101FB000B1FF782000F03CFCC82000F01AFD02F0D0
:101FC000ABF8B948FFF719FE044602F0AFF840F24B
:101FD000731002F0ECFCC82002F062FAFFF721FE59
:101FE000012001F0DFFD38BD2DE9F04F8FB00CA8C6
:101FF000AE490DAB08AACDE90010AD49AD4802F0DD
:1020000035FEAA48008800F4807000287ED0089829
:1020100004F0ECF904464FF09D4104F0B5F8A649F0
:102020000860099804F0E2F904464FF09D4104F07D
:10203000ABF8A24908600A9804F0D8F904464FF0BA
:102040009D4104F0A1F89E4908600B9804F0CEF978
:1020500004464FF09D4104F097F89A49086098486B
:1020600001684FF0804004F021FA03909448016821
:10207000039804F01BFA8246904801684FF04040F4
:1020800004F014FA03908D480168039804F00EFAE6
:102090008346514604F008FB81464FF07E5104F020
:1020A00005F8044603F0D6FFCDE904018248016833
:1020B0004FF0804004F0FAF98346804801685846A2
:1020C00004F0F4F981467E4801684FF0804004F046
:1020D000EDF983467B480168584604F0E7F98246EB
:1020E000494603F0E3FF044603F0B4FF0746DDE989
:1020F000042303F0C1FA05464FF06632724B03F039
:10210000B5FDCDE9060103F077FB00E052E06F4931
:1021100008606C480168006804F0C8F905906848D8
:102120000168006804F0C2F904906448016800681E
:1021300004F0BCF9029060480168006804F0B6F948
:102140000190029903F0B2FF0390049904F0ACFAF5
:102150008346059904F0A8FA824603F07BFFCDE997
:102160000601584801685448006804F09FF905903A
:10217000534801685148006804F098F904900599A3
:1021800003F094FF83464FF0804104F08FF98246BC
:1021900003F060FF8046DDE9062303F06DFA064692
:1021A0004FF06632484B03F061FD044603F024FB18
:1021B000474908600FB0BDE8F08F2DE9F05F42217C
:1021C000D020FFF70AFC05464121D020FFF705FC8F
:1021D00005EB0024204604F009F982464FF08E41B9
:1021E000504604F02FFA05D24FF08F41504604F0CC
:1021F0005BFA82463749504603F0C6FF834603F038
:1022000029FF8046344A354B03F028FB064600225E
:10221000334B03F02BFD044603F0EEFA82465046A2
:1022200004F0A8F8BDE8F09F70B504460D46FFF72E
:10223000DBFE00212648006804F004F906D2294993
:102240002348006803F032FF2149086020480068F5
:1022500020602968206804F027FA206000212068A7
:1022600004F0F0F804D21F49206803F01FFF20603B
:1022700070BD0000B2000020A40000206D70755FEA
:102280007365745F73656E736F7220636F6D706CCE
:10229000657465202E2E2E2E2E2E0D0A00000000B5
:1022A0000CED00E00000FA05600000204000002076
:1022B0003A0000203400002050000020540000208C
:1022C000580000205C00002066A64C40480000201A
:1022D0004C0000200000AA43A4703D0AD7434240AE
:1022E000000024400000B44338B50446FB4890F891
:1022F0002400C0B114B10220009001E00020009041
:10230000F64A1268D17BF54A526810786B46012272
:10231000FFF7C4FA10B14FF0FF3038BD9DF8001040
:10232000EE48417423E0ED48807A10B94FF0FF3059
:10233000F3E724B1E948407C08B10020EDE714B18F
:102340000120009001E000200090E44A1268D17B57
:10235000E24A526810786B460122FFF79FFA10B1EB
:102360004FF0FF30D9E79DF80010DC4841740020A1
:10237000D3E738B5002419E0D8480068C07AA042F5
:1023800004D0D6480068407DA04200D10CE0D3497B
:10239000496808786B4601222146FFF7E3FA10B13D
:1023A0004FF0FF3038BD00BF601CC4B2CB4840685E
:1023B0000079A042E0DC0020F4E770B504460D4649
:1023C000C6480068C07AA04204D0C4480068407D76
:1023D000A04202D14FF0FF3070BDC0484068007984
:1023E000A04202DC4FF0FF30F6E7BC4949680878AC
:1023F0002B4601222146FFF7B5FAEDE738B5044632
:10240000B64890F82300A04201D1002038BD14B195
:102410003020009001E000200090B048807C20B186
:102420009DF8000040F002000090AC4890F82200B7
:1024300020B19DF8000040F080000090A74A12688B
:10244000117DA64A526810786B460122FFF726FAE2
:1024500010B14FF0FF30D9E7A04880F823400020AA
:10246000D4E738B5044604F0700010B101200090A4
:1024700005E014B10020009001E040200090974A50
:102480001268917C954A526810786B460122FFF7DA
:1024900005FA20B1002191488172481E38BD9DF88F
:1024A000000020F040018D4801730020009004F0EE
:1024B000400020B99DF8000040F00400009004F0B6
:1024C000200020B99DF8000040F00200009004F0C8
:1024D000100020B99DF8000040F00100009004F0C9
:1024E000080020B99DF8000040F0380000907B4AB9
:1024F0001268D17C794A526810786B460122FFF746
:10250000CDF920B1002175488172481EC6E724B17B
:10251000082C02D00020FFF771FF70488472002160
:1025200001753220FEF74BFE0020B7E738B50446B0
:102530006A48807CA04201D1002038BD002C46D0E2
:10254000664A12681179654A526810786B46012212
:10255000FFF708FA10B14FF0FF30EEE79DF80000EA
:1025600020F0200000905D4A126811795B4A5268A1
:1025700010786B460122FFF791F910B14FF0FF3050
:10258000DBE70320FEF71BFE02200090534890F883
:10259000220020B19DF8000040F0800000904F48DC
:1025A00090F8230020B19DF8000040F0300000902A
:1025B0004A4A1268117D494A526810786B460122D6
:1025C000FFF76CF9002851D04FF0FF30B5E7434AD0
:1025D00012681179414A526810786B460122FFF760
:1025E000C1F910B14FF0FF30A7E73C48807A00F006
:1025F000010028B19DF8000040F02000009004E0A8
:102600009DF8000020F020000090344A12681179F3
:10261000324A526810786B460122FFF73FF910B139
:102620004FF0FF3089E70320FEF7C9FD2B4890F8F3
:10263000220010B18020009001E000200090274887
:1026400090F8230020B19DF8000040F03000009089
:10265000224A1268117D214A526810786B46012285
:10266000FFF71CF910B14FF0FF3066E71B48847488
:10267000002062E708B51948807A10B94FF0FF30A2
:1026800008BD00200090154A1268D17B134A526899
:1026900010786B460122FFF701F910B14FF0FF30BF
:1026A000EEE70E4A126851790C4A526810786B4670
:1026B0000122FFF7F3F810B14FF0FF30E0E7074ACF
:1026C00012681179054A526810786B460122FFF7AB
:1026D000E5F828B14FF0FF30D2E70000700000208D
:1026E000F74890F82400002850D00C200090F44ABD
:1026F00012681179F24A526810786B460122FFF78E
:10270000CDF810B14FF0FF30BAE7C0200090EC4890
:10271000807A00F0010020B19DF8000040F0200018
:102720000090E74A12681179E54A526810786B46C2
:102730000122FFF7B3F810B14FF0FF30A0E7E048F7
:10274000407C10B10220009001E000200090DC4AA3
:102750001268D17BDA4A526810786B460122FFF783
:102760009DF810B14FF0FF308AE700200090D44A66
:1027700012685179D24A526810786B460122FFF7ED
:102780008DF8002852D04FF0FF3079E704200090F8
:10279000CB4A12681179CA4A526810786B460122F6
:1027A000FFF77CF810B14FF0FF3069E7C448807C38
:1027B00020B9C348807A00F0010010B94020009091
:1027C00001E060200090BE4A12681179BC4A52684C
:1027D00010786B460122FFF761F810B14FF0FF301F
:1027E0004EE7B748407C10B10120009001E0002086
:1027F0000090B34A1268D17BB14A526810786B4698
:102800000122FFF74BF810B14FF0FF3038E7AC4A28
:1028100012685179AA4A52681078A94B10330122E4
:10282000FFF73CF810B14FF0FF3029E7002027E711
:1028300070B50446002624F00104A14890F8240055
:1028400008B1002070BD9E48807A10B94FF0FF306B
:10285000F8E79B48057C807A20409949087408462F
:10286000007CA04202D04FF0FF3600E0002614B9F1
:102870009348007D18B10120FFF736FD02E00020EB
:10288000FFF732FD3CB1FFF7F5FE20B18C4805742F
:102890004FF0FF30D6E73046D4E738B504468848D5
:1028A000807A10B94FF0FF3038BDBC2C02DB01201C
:1028B000009015E0622C02DB0220009010E02A2C30
:1028C00002DB032000900BE0142C02DB04200090BC
:1028D00006E00A2C02DB0520009001E006200090B3
:1028E0007748C07A9DF80010884201D10020DBE7CC
:1028F000734A12689178724A526810786B460122C6
:10290000FEF7CCFF10B14FF0FF30CDE79DF800107F
:102910006B48C1720020C7E738B50446282C02DD99
:102920004FF0FF3038BDDCB90020FFF767FD002015
:102930008DF8000007208DF80100614A1268917C33
:102940005F4A526810786B460222FEF7A7FF10B16B
:102950004FF0FF30E6E70021594801750020E1E71C
:102960000120FFF74BFD20208DF80000012C06D13F
:1029700000208DF801000520FFF78FFF17E0052CE0
:1029800006DC01208DF801000520FFF786FF0EE030
:10299000142C06DC02208DF801000A20FFF77DFFD1
:1029A00005E003208DF801001420FFF776FF9DF865
:1029B0000100072101EB8010C0B28DF80100404AF0
:1029C0001268917C3E4A526810786B460222FEF7EC
:1029D00065FF10B14FF0FF30A4E70821384881723D
:1029E00000210173012101750020FFF721FF002064
:1029F00098E738B504463248807A10B94FF0FF3076
:102A000038BD2F4890F8240010B14FF0FF30F7E7A1
:102A10002B48007D50B134B1282C04DCE0B2FFF724
:102A20007BFF0020ECE70020FFF776FF042C01DAA3
:102A3000042404E0B4F57A7F01DD4FF47A744FF496
:102A40007A7090FBF4F0401EC0B200901C4A1268ED
:102A500051781B4A526810786B460122FEF71EFF20
:102A600010B14FF0FF30CBE79DF80000401C4FF451
:102A70007A7191FBF0F081B21148C1810146C98998
:102A80004810FFF70AFF0020BAE738B504460C48A3
:102A9000807A10B94FF0FF3038BD022C06D0042CDC
:102AA00007D0082C08D0102C0FD10BE0002000908C
:102AB0000EE0082000900BE01020009008E00000DD
:102AC000700000201820009002E04FF0FF30E3E794
:102AD00000BFF848407A9DF80010B0EBE10F01D13B
:102AE0000020D9E7F34A1268D179F24A5268107887
:102AF0006B460122FEF7D2FE10B14FF0FF30CBE75C
:102B00009DF80000C110EB4841720020C4E738B5C1
:102B10000446E848807A10B94FF0FF3038BDFA2CEF
:102B200009D0B4F5FA7F09D0B4F57A7F09D0B4F5AD
:102B3000FA6F0CD108E0002000900BE00820009014
:102B400008E01020009005E01820009002E04FF00F
:102B5000FF30E3E700BFD748007A9DF80010B0EBE4
:102B6000E10F01D10020D9E7D24A12689179D14A08
:102B7000526810786B460122FEF790FE10B14FF0BC
:102B8000FF30CBE79DF80000C010CA490872002052
:102B9000C4E71CB580208DF80000C64A1268917CFD
:102BA000C44A526810786B460122FEF777FE10B1D6
:102BB0004FF0FF301CBD6420FEF701FB00208DF8B4
:102BC0000000BC4A1268917CBA4A526810786B4681
:102BD0000122FEF763FE10B14FF0FF30EAE7B54A7D
:102BE0001268917DB34A526810786B460622FEF750
:102BF000B9FE10B14FF0FF30DCE79DF80500C007CB
:102C0000400F9DF8031001F0010140EA41009DF8DA
:102C1000011001F0010140EA010474B1012C03D15B
:102C20000121A448C17427E0022C03D10021A1484E
:102C3000C17421E04FF0FF30BCE79E4A1268D178A2
:102C40009C4A526810786B460122FEF78BFE10B149
:102C50004FF0FF30AEE79DF8000000F00F0414B90C
:102C60004FF0FF30A6E7042C03D101219148C17435
:102C700002E000218F48C174FF218E488172FF203D
:102C80008C490872FF218B484172C1724FF6FF7167
:102C9000C181FF21017481740121017380F8221028
:102CA000002180F8231041750175163001604160E4
:102CB0008160163880F8241080F82510C1844FF404
:102CC000FA60FFF724FF10B14FF0FF3072E70220E7
:102CD000FFF7DBFE10B14FF0FF306BE72A20FFF764
:102CE000DCFD10B14FF0FF3064E73220FFF781FECA
:102CF00010B14FF0FF305DE70020FFF799FD10B1F4
:102D00004FF0FF3056E70020FFF710FC10B14FF0F6
:102D1000FF304FE70020FFF7A4FB00204AE7704791
:102D20007CB504460D466348807A00F0700010B907
:102D30004FF0FF307CBD5F4A1268117B5D4A5268DC
:102D400010786B460622FEF70DFE10B14FF0FF30F3
:102D5000F0E79DF801009DF8001040EA012000B264
:102D600020809DF803009DF8021040EA012000B287
:102D700060809DF805009DF8041040EA012000B233
:102D8000A08015B12846FFF7CAFF0020D2E77CB526
:102D900004460D464748807A00F0080010B94FF00D
:102DA000FF307CBD434A1268517B424A526810781A
:102DB0006B460622FEF7D6FD10B14FF0FF30F0E76C
:102DC0009DF801009DF8001040EA012000B220802B
:102DD0009DF803009DF8021040EA012000B26080D7
:102DE0009DF805009DF8041040EA012000B2A08083
:102DF00015B12846FFF793FF0020D2E72DE9FE4FDB
:102E000005460C462B48807A18B94FF0FF30BDE8D4
:102E1000FE8F284A1268917B264A5268107802ABCE
:102E20000222FEF79FFD10B14FF0FF30EFE79DF853
:102E300009009DF8081040EA012006B214B12046AE
:102E4000FFF76DFF1B494968C88803F0E7FA194985
:102E500001904968B1F9080003F0C8FA834630468A
:102E600003F0C4FA5946009003F01EFC8246019913
:102E700003F08AF98146104903F018F980464FF0B3
:102E80008F4103F013FB074603F074FA286000201B
:102E9000BDE710B588B004461CB94FF0FF3008B04C
:102EA00010BD206850B9606840B9A06830B90020F2
:102EB000F5E700007000002000000C42FA49496864
:102EC000087806AB03221146FEF74CFD10B14FF017
:102ED000FF30E4E79DF81800082101EB201000F016
:102EE0000F00ADF800009DF8190001EB201000F074
:102EF0000F00ADF802009DF81A0001EB201000F061
:102F00000F00ADF8040020684100BDF9000040301A
:102F100091FBF0F000B2ADF8100060684100BDF91F
:102F20000200403091FBF0F000B2ADF81200A06852
:102F30004100BDF90400403091FBF0F000B2ADF863
:102F40001400D9494968087806AB06221146FEF7F5
:102F500009FD10B14FF0FF30A1E79DF819009DF871
:102F6000181040EA012000B2ADF808009DF81B00DF
:102F70009DF81A1040EA012000B2ADF80A009DF851
:102F80001D009DF81C1040EA012000B2ADF80C00B5
:102F9000BDF81000BDF80810084400B2ADF81000EC
:102FA000BDF81200BDF80A10084400B2ADF81200D6
:102FB000BDF81400BDF80C10084400B2ADF81400C0
:102FC000BDF81000000A8DF81800BDF81000C0B25E
:102FD0008DF81900BDF81200000A8DF81A00BDF82E
:102FE0001200C0B28DF81B00BDF81400000A8DF865
:102FF0001C00BDF81400C0B28DF81D00AA49496834
:10300000087806AB06221146FEF748FC10B14FF0D7
:10301000FF3044E7002042E70146A348007A30B180
:10302000012807D0022809D003280FD10AE0FA208E
:1030300008800EE04FF4FA7008800AE04FF47A70CE
:10304000088006E04FF4FA60088002E00020088063
:1030500000BF00BF0020704701469348407A30B15E
:10306000012807D0022808D003280CD108E002204C
:1030700008700BE00420087008E00820087005E0E4
:103080001020087002E04FF0FF30704700BF864804
:10309000C07C18B108784006000E08700020F4E7E4
:1030A00001468148C07A082817D2DFE800F01704EB
:1030B000070A0D101318BC20088013E06220088056
:1030C00010E02A2008800DE0142008800AE00A2081
:1030D000088007E00520088004E000BF00BF002052
:1030E000088000BF00BF0020704701466E4890F87E
:1030F000240010B14FF0FF3070476B48C089088042
:103100000020F9E7014600200880401E7047014674
:103110004FF0FF30704701466348007A30B1012814
:1031200007D0022808D003280CD108E05F480860C7
:103130000BE05F48086008E05E48086005E05E4814
:10314000086002E04FF0FF30704700BF0020FBE74F
:1031500001465548407A30B1012808D002280AD0EB
:10316000032810D10BE04FF4804008800EE041F6B8
:103170009C7008800AE04FF48050088006E04FF40D
:103180000060088002E04FF0FF30704700BF464803
:10319000C07C10B10888401008800020F5E7014687
:1031A0004148007C08700020704701463E48807A04
:1031B00010B10120087001E0002008700020704765
:1031C00038B504463848807A10B94FF0FF3038BD22
:1031D000354A1268117C344A526810786B460222D4
:1031E000FEF7C0FB10B14FF0FF30F0E79DF8010093
:1031F0009DF8001040EA012000B220800020E6E7A0
:103200002DE9FE4F0746884692461D46DDF830B050
:1032100000260024244890F8240010B1601EBDE868
:10322000FE8F002028702048807A10B94FF0FF30C0
:10323000F5E71D48007C10B94FF0FF30EFE71A4862
:10324000007C00F0400008B1B01CC6B21648007CFB
:1032500000F0200008B1B01CC6B21348007C00F09A
:10326000100008B1B01CC6B20F48007C00F0080086
:1032700008B1B01DC6B20C4A1268917A0A4A526867
:1032800010786B460222FEF76DFB10B14FF0FF3055
:10329000C5E79DF801009DF8001040EA0129B145FD
:1032A0000CDA0020BBE700007000002000000343A0
:1032B000000083423333034233338341FC48406888
:1032C0004088B9EB600F17DDF94A1268517CF84A63
:1032D000526810786B460122FEF744FB10B14FF0A4
:1032E000FF309CE79DF8000000F0100020B1FFF7D0
:1032F000C1F96FF0010092E75046FFF710FDEC4A6C
:103300001268D17AEA4A526810786B463246FEF764
:1033100029FB10B14FF0FF3081E799FBF6F0401E1A
:103320008BF8000000202870B4422AD0E048007CCE
:1033300000F0080028B3601C1DF800001DF8041000
:1033400040EA012000B2A8F80000E01C1DF80010BF
:10335000A01C1DF8000041EA002000B2A8F80200FD
:10336000601D1DF80010201D1DF8000041EA00201E
:1033700000B2A8F80400287840F008002870A01DCA
:1033800084B2B44213D0CA48007C00F0400070B14F
:10339000601C1DF800001DF8041040EA012000B276
:1033A0003880287840F040002870A01C84B2B442D5
:1033B00013D0BF48007C00F0200070B1601C1DF8E5
:1033C00000001DF8041040EA012000B2788028783F
:1033D00040F020002870A01C84B2B44213D0B4483E
:1033E000007C00F0100070B1601C1DF800001DF89A
:1033F000041040EA012000B2B880287840F01000A4
:103400002870A01C84B2002009E7F8B504460F46D6
:103410001646A74890F8240010B94FF0FF30F8BDC9
:10342000A348807A10B94FF0FF30F8E7A04A12683D
:10343000917A9F4A526810786B460222FEF792FA00
:1034400010B14FF0FF30EAE79DF801009DF8001041
:1034500040EA0125A54203DA00203070401EDEE775
:10346000934840684088B5EB600F17DD904A1268BA
:10347000517C8F4A526810786B460122FEF772FA2F
:1034800010B14FF0FF30CAE79DF8000000F01000C7
:1034900020B1FFF7EFF86FF00100C0E7E2B2844B14
:1034A0001B68D97A824B5B6818783B46FEF75AFA5C
:1034B00010B14FF0FF30B2E795FBF4F0401E3070D2
:1034C0000020ACE701467A4880F8221000207047BF
:1034D0007CB5054676494968087801AB04220D2180
:1034E000FEF740FA08B107207CBD9DF80700C0F345
:1034F00001109DF8041001F0E00140EAE1008DF8B0
:1035000000009DF80700C0F381009DF8051001F050
:10351000E00140EAE1008DF801009DF8070000F0AD
:1035200003009DF8061001F0E00140EAE1008DF88B
:10353000020000241CE01DF8040018B9002045F822
:10354000240013E05B4845F8240006E055F8240009
:10355000594902F0ABFF45F824001DF80400401E55
:10356000C0B20DF804000028F0D100BF601CC4B246
:10357000032CE0DB0020B7E72DE9FE4F06460F469F
:1035800000256846FFF7A4FF002442E056F8240017
:1035900057F82410A0EB010ABAF1000F01DB5146E5
:1035A00001E0CAF10001084602F020FF83464FF017
:1035B0008F4102F0E9FD80465DF82400002102F011
:1035C000A5FE16D05DF82410404602F0DDFD8246CF
:1035D0004FF07E5103F068F8814629F0004A3748E1
:1035E000416A504603F02EF812D20120A040054354
:1035F0000EE03248C169404602F024FF05D32F484F
:10360000016A404603F01EF802D20120A0400543A3
:10361000641C032CBADB2846BDE8FE8F2DE9FC5F55
:1036200006460F46002522494968087801AB032267
:103630000D21FEF797F910B10720BDE8FC9F9DF81A
:10364000040000F01F008DF804009DF8050000F054
:103650001F008DF805009DF8060000F01F008DF892
:103660000600002462E056F8240057F82410A0EB6E
:10367000010BBBF1000F01DB594601E0CBF100016A
:10368000084602F0B3FE4FF08F41009002F07CFD3F
:10369000814601A8005DC0B30849086802F0BEFE7B
:1036A00083465946064802F06FFD80460FE0000051
:1036B000700000207B14AE3E1D5A843FAC680008A9
:1036C00000B04C45FE49404602F0F0FE804601A89D
:1036D000005D401EC0B201A908550028F2D1414644
:1036E000484602F051FD83464FF07E5102F0DCFF68
:1036F00082462AF0004BF3488169584602F0A2FF47
:1037000013D20120A04005430FE0FFE7ED48016917
:10371000484602F097FE05D3EA484169484602F060
:1037200091FF02D20120A0400543641C032C9ADBC8
:10373000284682E72DE9F04F87B005460C469146B2
:1037400001208DF8100000208DF81100DE4A12686B
:10375000917CDD4A5268107804AB0222FEF79EF895
:1037600020B14FF0FF3007B0BDE8F08FC820FDF763
:1037700026FD00208DF81000D34A1268D17BD24A72
:103780005268107804AB0122FEF788F810B14FF0B0
:10379000FF30E8E7CC4A12685179CB4A526810787A
:1037A00004AB0122FEF77AF810B14FF0FF30DAE7F0
:1037B000C54A1268917CC44A5268107804AB012251
:1037C000FEF76CF810B14FF0FF30CCE7BE4A12683C
:1037D000D17DBD4A5268107804AB0122FEF75EF835
:1037E00010B14FF0FF30BEE7B74A12681179B64A00
:1037F0005268107804AB0122FEF750F810B14FF078
:10380000FF30B0E70C208DF81000AF4A1268117934
:10381000AD4A5268107804AB0122FEF73FF810B1B0
:103820004FF0FF309FE70F20FDF7C9FCA648806AE4
:10383000407A8DF81000A44A12689178A24A526822
:10384000107804AB0122FEF729F810B14FF0FF30D9
:1038500089E79D48806A007A8DF810009A4A1268BC
:103860005178994A5268107804AB0122FEF716F895
:1038700010B14FF0FF3076E7B9F1000F07D0924852
:10388000806A807A40F0E0008DF8100004E08E48F5
:10389000806A807A8DF810008B4A126891798A4A82
:1038A0005268107804AB0122FDF7F8FF10B14FF019
:1038B000FF3058E7B9F1000F07D08348806AC07A1B
:1038C00040F0E0008DF8100003E07E48C07A8DF8EB
:1038D00010007D4A1268D1797B4A5268107804AB97
:1038E0000122FDF7DBFF10B14FF0FF303BE7B9F1EC
:1038F000000F02D0C820FDF762FC40208DF81000B8
:10390000714A12681179704A5268107804AB01222A
:10391000FDF7C4FF10B14FF0FF3024E778208DF899
:103920001000694A12685179674A5268107804ABEE
:103930000122FDF7B3FF10B14FF0FF3013E76149EB
:103940008889FDF73CFC00208DF810005E4A126863
:1039500051795D4A5268107804AB0122FDF79EFF51
:1039600010B14FF0FF30FEE6574A1268917A564A7E
:103970005268107804AB0222FDF7F4FF10B14FF04B
:10398000FF30F0E69DF811009DF8101040EA012B81
:103990000C209BFBF0F0C6B20020A8606860286095
:1039A000A06060602060824665E0474A1268D17A74
:1039B000454A5268107804AB0C22FDF7D3FF10B1D2
:1039C0004FF0FF30CFE69DF811009DF8101040EA4F
:1039D000012000B2ADF808009DF813009DF8121008
:1039E00040EA012000B2ADF80A009DF815009DF8EC
:1039F000141040EA012000B2ADF80C00BDF9081027
:103A0000206808442060BDF90A10606808446060BE
:103A1000BDF90C10A0680844A0609DF817009DF83F
:103A2000161040EA012000B2ADF800009DF8190020
:103A30009DF8181040EA012000B2ADF802009DF890
:103A40001B009DF81A1040EA012000B2ADF80400F6
:103A5000BDF90010286808442860BDF902106868A4
:103A600008446860BDF90410A8680844A8600AF119
:103A7000010000F0FF0AB24597DB1248D0F800C001
:103A80002868C117090441EA10410704624600236F
:103A9000384601F01AFA32460023CDE9020101F05E
:103AA00014FA28600748D0F800C06868C1170904F4
:103AB00041EA1041070462460023384606E0000050
:103AC00054E3853FAC6800087000002001F0FDF968
:103AD00032460023CDE9020101F0F7F96860FE48A3
:103AE000D0F800C0A868C117090441EA10410704D2
:103AF00062460023384601F0E8F932460023CDE95A
:103B0000020101F0E2F9A860F348D0F804C021688E
:103B1000C817000440EA11480F04624600233846E3
:103B2000414601F0D2F932460023CDE9020101F00D
:103B3000CCF92060E848D0F804C06068C1170904D7
:103B400041EA1041070462460023384601F0BDF9FE
:103B500032460023CDE9020101F0B7F96060DE488A
:103B6000D0F804C0A068C117090441EA1041070455
:103B700062460023384601F0A8F932460023CDE919
:103B8000020101F0A2F9A060A068002804DDA0688D
:103B9000A0F58030A06003E0A06800F58030A06050
:103BA0000020E0E538B50446CC4890F82400A04257
:103BB00001D1002038BD24B3C84890F8250010B9C1
:103BC0004FF0FF30F6E70020FEF78EFB0020FEF7F7
:103BD000ADFCC249C88CFEF70CFF00200090BF4925
:103BE000496808786B4601222321FDF757FE012121
:103BF000BA4880F824100120FEF776FBFEF73AFD64
:103C000013E00020FEF770FBB448007C0090B3493D
:103C1000496808786B4601222321FDF73FFE002109
:103C2000AE4880F82410FEF725FD0020C2E72DE9FC
:103C3000F04F8DB083460F4602200C90A74890F8B5
:103C4000240020B10020FFF7ADFF012600E0002690
:103C500003A8FFF7E1F905A8FFF7FEF901A8FFF7B0
:103C60001FFA02A8FFF741FA9C4890F80AA004A89E
:103C7000FFF795FA002407E0002239465846FFF77F
:103C800059FD00B902E0641C022CF5DB00BF022CD8
:103C900001D1002528E0002407E0012206A909A897
:103CA000FFF748FD00B902E0641C022CF5DB00BF01
:103CB000022C01D1002517E006A93846FFF75CFC6D
:103CC00000F0FF0809A95846FFF7A8FC00F0FF091B
:103CD0000025B9F1000F01D145F00105B8F1000F41
:103CE00001D145F0020500BFFF207C490872FF2189
:103CF0007A484172C1724FF6FF71C181FF21817212
:103D0000017401210173BDF80C00FEF700FF9DF85E
:103D10001400FEF7BAFEBDF80400FEF7BEFDBDF8C4
:103D20000800FEF766FE5046FEF79BFB9DF810006C
:103D3000FEF77EFD16B10120FFF734FF28460DB0D7
:103D4000BDE8F08FF8B504460D46164616B94FF09B
:103D5000FF30F8BD6148807A10B94FF0FF30F8E7C6
:103D600020128DF80000E0B28DF801009DF80100EE
:103D700028445A4949684989884202DD4FF0FF309A
:103D8000E7E7564A1268117E544A526810786B462B
:103D90000222FDF783FD10B14FF0FF30D9E7EAB200
:103DA0004E4B1B68597D4D4B5B6818783346FDF7C9
:103DB00075FD10B14FF0FF30CBE70020C9E7F8B533
:103DC00004460D46164616B94FF0FF30F8BD43487D
:103DD000807A10B94FF0FF30F8E720128DF800001C
:103DE000E0B28DF801009DF8010028443B49496884
:103DF0004989884202DD4FF0FF30E7E7374A126811
:103E0000117E364A526810786B460222FDF746FD55
:103E100010B14FF0FF30D9E7EAB2304B1B68597D43
:103E20002E4B5B6818783346FDF79CFD10B14FF0C0
:103E3000FF30CBE70020C9E72DE9F04385B0054608
:103E40000E4690469946254890F8250020B14FF03F
:103E5000FF3005B0BDE8F08316B94FF0FF30F8E74A
:103E6000002423E0281B102801DD102000E0281B7F
:103E700087B2321939462046FFF764FF10B14FF080
:103E8000FF30E6E701AA39462046FFF798FF10B158
:103E90004FF0FF30DDE730193A4601A901F0B6F8DE
:103EA00010B16FF00100D4E7E01984B2AC42D9DB65
:103EB0004FEA28208DF8000008F0FF008DF801007F
:103EC000064A1268917E054A526810786B460222B3
:103ED000FDF7E4FC38B103E0AC6800087000002096
:103EE0004FF0FF30B5E701218A4880F82510A0F88F
:103EF00026900020ADE70146864890F8240008701F
:103F00000020704702464FF0FF30704701464FF0E7
:103F1000FF307047F8B505460F461446002C70D0A8
:103F2000B5F5FF5F01DDFF2605E0202D01DA012652
:103F300001E0C5F3471607B90127282C02DD4FF031
:103F4000FF30F8BD7348407D28BB724890F82400CC
:103F500038B10020FFF726FE01216E4880F82010BE
:103F600003E000216B4880F820106A481630FFF704
:103F700053F868481830FFF76FF866481A30FFF7B3
:103F80008FF864481C30FFF7B0F86248817A817777
:103F90001F30FFF704F90020FEF7A6F90020FEF716
:103FA000BBFC00208DF800005A4A12689178594AEB
:103FB000526810786B460122FDF770FC10B14FF08B
:103FC000FF30BEE740208DF80000524A1268D17BD6
:103FD000504A526810786B460122FDF75FFC00B131
:103FE00065E08DF800608DF801704A4A1268117A18
:103FF000484A526810786B460222FDF74FFC08B120
:1040000055E047E00520FDF7DAF84248407A0721FD
:1040100001EBC000C0B28DF800003E4A1268D179B1
:104020003C4A526810786B460122FDF737FC00B11C
:104030003DE020208DF80000012C03D100208DF8F8
:1040400001000EE0052C03DC01208DF8010008E0E2
:10405000142C03DC02208DF8010002E003208DF80F
:1040600001009DF80100072101EB8010C0B28DF81E
:104070000100284A1268917C264A526810786B46E3
:104080000222FDF70BFC00B111E00121214841752E
:10409000002056E71F4A1632002103E0505C00B1B1
:1040A00005E0491C0C29F9D34FF0FF3049E7FF2008
:1040B00018490872FF2117484172C1724FF6FF710B
:1040C000C181FF2181720174012101730146887F42
:1040D000FEF7C7F90F49C88AFEF719FD0D49087E9A
:1040E000FEF7D3FC0B49488BFEF7D7FB0949888BB9
:1040F000FEF77FFC0749C87FFEF79AFB054890F85A
:10410000200010B10120FFF74DFD0021014841754D
:10411000002016E77000002010B5C8234FF480621D
:10412000F74940F6F630FFF787FE10BD10B586B0B0
:104130000446F4A000680390F3A000680290F3A086
:1041400000680190F2A00068009004F0030003A949
:10415000085C8DF8140003A8C4F3C101405C8DF81D
:10416000150003A8C4F38111405C8DF8160004F01B
:10417000030002A9085C8DF8100002A8C4F3C10175
:10418000405C8DF8110002A8C4F38111405C8DF8E9
:10419000120005AA032140F22640FFF7D3FD18B113
:1041A0004FF0FF3006B010BD04AA032140F22A40B0
:1041B000FFF7C8FD10B14FF0FF30F3E7019805900D
:1041C0000098049004F0040058B19DF8140040F0E9
:1041D00001008DF814009DF8100040F001008DF8EA
:1041E000100004F0200058B19DF8150040F00100C7
:1041F0008DF815009DF8110040F001008DF81100B8
:1042000004F4807058B19DF8160040F001008DF85C
:1042100016009DF8120040F001008DF8120005AA6A
:1042200003214FF48860FFF78DFD10B14FF0FF3090
:10423000B8E704AA032140F23140FFF783FD10B133
:104240004FF0FF30AEE7B34804810020AAE71FB566
:104250000446B048007A00F0030054F820000190B2
:10426000AC48007A00F0040010B10198404201907F
:10427000A848007AC0F3C10054F820000290A54875
:10428000007A00F0200010B1029840420290A1484C
:10429000007AC0F3811054F8200003909D480089F3
:1042A00000F4807010B10398404203909A4901983D
:1042B00080FB0101800F40EA81000190964902983D
:1042C00080FB0110820042EA9170029092490398AB
:1042D00080FB0110820042EA917003900198000E69
:1042E0008DF800000198000C8DF801000198000A7B
:1042F0008DF802000198C0B28DF803006A460421CF
:104300004FF47470FFF71EFD18B14FF0FF3004B08A
:1043100010BD0298000E8DF800000298000C8DF878
:1043200001000298000A8DF802000298C0B28DF8D0
:1043300003006A4604214FF47570FFF703FD10B1C6
:104340004FF0FF30E3E70398000E8DF8000003986C
:10435000000C8DF801000398000A8DF80200039804
:10436000C0B28DF803006A4604214FF47670FFF75F
:10437000E9FCCCE770B588B0064601A8FEF7E8FE78
:10438000BDF804000021C90341EA5045C403614857
:10439000007A00F0030056F8200005905D48007A8E
:1043A00000F0040010B10598404205905948007A89
:1043B000C0F3C10056F8200006905648007A00F07D
:1043C000200010B10698404206905248007AC0F38F
:1043D000811056F8200007904E48008900F4807044
:1043E00010B10798404207900598C117A0FB04231D
:1043F00001FB043100FB0510810041EA9270059039
:104400000698C117A0FB042301FB043100FB051033
:10441000810041EA927006900798C117A0FB04231F
:1044200001FB043100FB0510810041EA9270079006
:104430000598000E8DF808000598000C8DF809000D
:104440000598000A8DF80A000598C0B28DF80B0097
:104450000698000E8DF80C000698000C8DF80D00E3
:104460000698000A8DF80E000698C0B28DF80F006D
:104470000798000E8DF810000798000C8DF81100B9
:104480000798000A8DF812000798C0B28DF8130043
:1044900002AA0C214FF42570FFF754FC08B070BD40
:1044A00030B585B004461DA207CA02AB07C3C82CAD
:1044B00003DD4FF0FF3005B030BDC82090FBF4F0B5
:1044C000401E85B2280A8DF80000E8B28DF8010080
:1044D0006A46022140F21620FFF734FC10B14FF07B
:1044E000FF30E8E702AA0C2140F6C120FFF72AFCC2
:1044F00010B14FF0FF30DEE7064884810020DAE794
:10450000D46800084CCD6C000CC92C0036567600DF
:10451000264666003801002009E3CA02FEF2ABC459
:10452000AAF1DFDFBBAFDFDF0146FC4880890880EE
:10453000002070472DE9FC4706460F4606F00700AD
:1045400010B1B7F5C86F03DD4FF0FF30BDE8FC8751
:10455000384601F063FF8146F14901F015FE8046BF
:104560006846FEF779FD9DF80000022806D0042871
:1045700016D0082826D0102848D135E04FF08D41BC
:10458000404601F093FF814601F010FF84B2E549F7
:10459000404601F08BFF814601F008FF85B238E00C
:1045A0004FF08C41404601F081FF814601F0FEFE54
:1045B00084B2DD49404601F079FF814601F0F6FE04
:1045C00085B226E04FF08B41404601F06FFF8146F7
:1045D00001F0ECFE84B2D549404601F067FF814608
:1045E00001F0E4FE85B214E04FF08A41404601F04C
:1045F0005DFF814601F0DAFE84B2CD49404601F00C
:1046000055FF814601F0D2FE85B202E04FF0FF3047
:104610009CE700BF20128DF80400E0B28DF8050081
:1046200028128DF80600E8B28DF8070006F00100A8
:10463000A0B101AA02214FF4EA70FFF783FB10B189
:104640004FF0FF3082E70DF1060202214FF4927025
:10465000FFF778FB10B14FF0FF3077E706F002006C
:10466000A0B101AA02214FF4EC70FFF76BFB10B16F
:104670004FF0FF306AE70DF1060202214FF494700B
:10468000FFF760FB10B14FF0FF305FE706F004006A
:10469000A0B101AA02214FF4EE70FFF753FB10B155
:1046A0004FF0FF3052E70DF1060202214FF49670F1
:1046B000FFF748FB10B14FF0FF3047E7002045E718
:1046C00038B504460020009004F0010020B19DF8A8
:1046D000000040F03000009004F0020020B19DF88E
:1046E000000040F00C00009004F0040020B19DF8A0
:1046F000000040F0030000906A4601214FF4A470CE
:10470000FFF720FB38BD38B50446012C01DA01243F
:1047100002E0042C00DD0424601EC0B200906A4652
:10472000012140F24F10FFF70DFB38BD38B50446AC
:10473000052094FBF0F085B228128DF80000E8B255
:104740008DF801006A4602214FF4EF70FFF7FAFA84
:1047500038BD38B50446052094FBF0F085B2281228
:104760008DF80000E8B28DF801006A4602214FF48E
:10477000ED70FFF7E7FA38BDF8B505460E464FF481
:104780007A7095FBF0F000FB06F4200E8DF8000027
:10479000200C8DF80100200A8DF80200E0B28DF89F
:1047A00003006A4604214FF4AE70FFF7CBFAF8BD60
:1047B00038B50446052094FBF0F084B220128DF841
:1047C0000000E0B28DF801006A4602214FF4AD709E
:1047D000FFF7B8FA38BD38B50446052094FBF0F071
:1047E00084B220128DF80000E0B28DF801006A4614
:1047F00002214FF4AC70FFF7A5FA38BD38B5044676
:1048000014B94FF0FF3038BD6A4604214FF4587098
:10481000FFF7D5FA10B14FF0FF30F4E79DF8000034
:1048200000069DF8011040EA01409DF8021040EAA0
:1048300001209DF80310084320600020E3E738B50D
:104840000446200E8DF80000200C8DF80100200A8F
:104850008DF80200E0B28DF803006A4604214FF49F
:104860005870FFF76FFA38BD38B5044614B94FF0E9
:10487000FF3038BD6A4604214FF47170FFF79FFA8C
:1048800010B14FF0FF30F4E79DF8000000069DF8EE
:10489000011040EA01409DF8021040EA01209DF815
:1048A0000310084300EB8000800020600020E0E758
:1048B00038B504461420B4FBF0F4200E8DF8000047
:1048C000200C8DF80100200A8DF80200E0B28DF86E
:1048D00003006A4604214FF47170FFF733FA38BDC4
:1048E00038B5044664B120208DF8000028208DF8EA
:1048F000010030208DF8020038208DF8030004E01C
:10490000A3220421684600F0ADFB6A46042140F66C
:104910009E20FFF717FAFDF7ADFE38BD38010020E5
:1049200000004843000040460000C04500004045EC
:104930000000C04438B5044664B1C0208DF80000C2
:10494000C2208DF80100C4208DF80200C6208DF829
:10495000030004E08B220421684600F083FB6A46D2
:10496000042140F69820FFF7EDF9FDF783FE38BDEE
:104970003EB504466CB1FDA1D1E900208968CDE9BE
:10498000002002916A4609214FF49760FFF7DAF997
:104990003EBDF9A2D2E900109268CDE90102009172
:1049A0006A4609214FF49760FFF7CCF9F0E73EB56E
:1049B000044602208DF80000CA208DF80100E32093
:1049C0008DF8020009208DF803006A460421682052
:1049D000FFF7B8F9A3208DF8000004F0400048B1BB
:1049E000C0208DF80100C8208DF80200C2208DF88B
:1049F000030006E0A3208DF801008DF802008DF879
:104A0000030004F4C07048B1C4208DF80400CC2029
:104A10008DF80500C6208DF8060006E0A3208DF86D
:104A200004008DF805008DF80600A3208DF807001E
:104A30008DF808008DF809006A460A2140F6A72083
:104A4000FFF780F904F0030018B120208DF8000072
:104A500002E0D8208DF800006A46012140F6B62019
:104A6000FFF770F904F0200018B10120FFF780FF74
:104A700002E00020FFF77CFF04F4C07008B304F4E8
:104A8000807060B1B2208DF800008B208DF801009D
:104A9000B6208DF802009B208DF803000BE0B020BB
:104AA0008DF8000080208DF80100B4208DF8020000
:104AB00090208DF803006A46042140F6A220FFF7FB
:104AC00041F904F0010020B3F8208DF800006A4697
:104AD00001214FF40B60FFF735F9FA210720FFF7AA
:104AE00029FD0720FFF7ECFD0120FFF70CFE6420F5
:104AF000FFF71CFE4FF4FA70FFF72BFEC821A14808
:104B0000FFF73AFE2820FFF753FE0A20FFF763FE67
:104B100008E0D8208DF800006A4601214FF40B60B0
:104B2000FFF710F904F0020018B1D9208DF8000049
:104B300002E0D8208DF800006A46012140F23D7065
:104B4000FFF700F904F0040018B10120FFF7F2FEAE
:104B500002E00020FFF7EEFE04F0100018B1012083
:104B6000FFF7BEFE02E00020FFF7BAFE44F00800A7
:104B700085494881FDF77EFD00208349887304F054
:104B8000400018B10846807B801D887304F4C07013
:104B900020B17D48807B801D7B49887304F0140020
:104BA00020B17948807B10307749887304F0030086
:104BB00020B17548807B001D7349887300203EBD7D
:104BC0000146714840890880002070472DE9F04176
:104BD0000446E07800F0C006E07800F03F05607819
:104BE00000F0010098B1EF102846E91705EB51716C
:104BF000C910A5EBC101491C01F0FF08624800681B
:104C000020B16148414602683846904700BF60784D
:104C100000F0080030B15C48406818B1B0115A4A41
:104C2000516888470020BDE8F08110B586B0044681
:104C300056A207CA03AB07C357A207CA8DE80700ED
:104C4000012C09D0022C0ED103AA0B2140F68220A0
:104C5000FFF778F806B010BD6A460B2140F68220B7
:104C6000FFF770F8F6E74FF0FF30F3E72DE9F04F6C
:104C70008DB00746884615469946DDE9166B002437
:104C8000002030804049887B5A4605A9FEF7BDFBCD
:104C900018B1601E0DB0BDE8F08F3B48807A00F07F
:104CA0001400002861D09DF8140000069DF815102E
:104CB00040EA01409DF8161040EA01209DF81710C7
:104CC000084328609DF8180000069DF8191040EA76
:104CD00001409DF81A1040EA01209DF81B1008437E
:104CE00068609DF81C0000069DF81D1040EA014018
:104CF0009DF81E1040EA01209DF81F100843A8608F
:104D00009DF8200000069DF8211040EA01409DF822
:104D1000221040EA01209DF823100843E86004F1C6
:104D20001000C4B228680014019068680014029052
:104D3000A86800140390E8680014049001984043A8
:104D4000029901FB0100039901FB0100049901FB99
:104D5000010ABAF1706F02DBBAF1885F22DDFDF75C
:104D600089FC00203080401E94E721E0B8AAB38D72
:104D7000B4980D355D000000B8AAAAAAB088C3C5D2
:104D8000C700000009E3CA0238010020D8B1B9F316
:104D90008BA391B609B4D900DAB1B9F38BA391B65C
:104DA000DAB4DA00B6F9000040F48070308000BF59
:104DB0003448807A00F0400020B305A9601C085CEC
:104DC000095D40EA012000B2A8F8000005A9E01C36
:104DD000095C05AAA01C105C41EA002000B2A8F8FA
:104DE000020005A9601D095C201D105C41EA00203D
:104DF00000B2A8F80400A01DC4B2B6F9000040F04B
:104E0000080030801F48408900F4C07008B305A92D
:104E1000601C085C095D40EA012000B2388005A9E9
:104E2000E01C095C05AAA01C105C41EA002000B24D
:104E3000788005A9601D095C201D105C41EA0020F6
:104E400000B2B880A01DC4B2B6F9000040F07000F6
:104E500030800C48807A00F0030018B105A90819C9
:104E6000FFF7B4FE4846FDF75AFF002012E701465F
:104E7000044801600020704701460248416000205C
:104E800070470000380100202DE9F0414FF48050B8
:104E9000FCF74FF90948006801F0DCF80646084ABB
:104EA000084B00F0DBFC044600F0A6FC0349086058
:104EB000C820FCF728FBBDE8F0810000A00000201E
:104EC000D0E2D6EE682DF63E704710B54C1084EA5D
:104ED000530404D54042C1F1000138BF491E1B42B2
:104EE00004D55242C3F1000338BF5B1E00F0C6F880
:104EF00014F0804F04D04042C1F1000138BF491E78
:104F000014F0004F04D05242C3F1000338BF5B1EBF
:104F100010BD00000FB4044910B503AA029800F0B8
:104F20007DF910BC5DF814FB300000202DE9F04144
:104F30000E460446002020622046E168884730B3D0
:104F4000252805D0D4E901219047206A401CF2E7CA
:104F5000E168204600278847050018D0A5F14100E8
:104F6000192802D820354FF40067324629462046DA
:104F70002760FBF7F5F840B1012804D0F61D26F0B4
:104F800007060836D8E7361DD6E72846DAE7206A4E
:104F9000BDE8F0812DE9F04106460024106875292E
:104FA000314616A510D0AFF30080002802DA404247
:104FB00013A507E031688A0701D512A502E0490769
:104FC00004D511A5012401E0AFF3008000210A22DD
:104FD00006F1240709E0B0FBF2FCB0FBF2F302FBA0
:104FE0001C00303078541846491C0028F3D1234661
:104FF0002A463046BDE8F04100F0B7B80000000096
:105000002D0000002B0000002000000040EA0103FA
:1050100010B59B070FD1042A0DD310C808C9121F61
:105020009C42F8D020BA19BA884201D9012010BD9B
:105030004FF0FF3010BD1AB1D30703D0521C07E068
:10504000002010BD10F8013B11F8014B1B1B07D1CC
:1050500010F8013B11F8014B1B1B01D1921EF1D13D
:10506000184610BD02F0FF0343EA032242EA02425F
:1050700000F0E8B8704770477047704753EA020C79
:1050800000F069802DE9F04B4FF00006002B1FBFA8
:10509000B3FA83F503FA05F424FA05F65E4012BF6D
:1050A0001643B2FA82F502FA05F4C5F120051EBFD7
:1050B00022FA05FC44EA0C04203556EA044C4FEA77
:1050C000144418BF641C4FF000084FF000099042D0
:1050D00071EB030C39D3002919BFB1FA81F701FA3A
:1050E00007F6B0FA80F700FA07F6C7F120071EBFEF
:1050F00020FA07FC46EA0C062037B6FBF4FCA7EBC7
:105100000507103F07F01F0BCBF120060CFA0BFB35
:105110002CFA06F644BFB3460026202FA4BF5E46F5
:105120004FF0000B5BEA060C08BF4FF0010B19EBC8
:105130000B09ABFB027C48EB0608C01B06FB02CC4C
:105140000BFB03CC71EB0C01C1E70B460246414659
:105150004846BDE8F08B13B54FF000004FF000015A
:10516000AFF30080BDE81C4070472DE9F0470D46C5
:1051700099469246044600F124080168880604D541
:10518000E06921F01001216000E00120A84201DD6A
:10519000471B00E00027A1697A1902EB0900081AF1
:1051A000A0612078C00602D42046AFF3008000261C
:1051B00008E0D4E901211AF806009047206A401C53
:1051C000761C20624E45F4DB2078C0060AD52046C6
:1051D000AFF3008006E0D4E9012130209047206A37
:1051E000401C2062381EA7F10107F4DC07E0D4E977
:1051F000012118F805009047206A401C2062281EF3
:10520000A5F10105F3DC2046AFF30080207800060D
:1052100002D50220BDE8F0870120FBE7074B70B5FF
:105220000D467B4400F033F80446284600F042F86F
:1052300010B14FF0FF3070BD204670BD9DC3FFFF21
:105240004FF000020429C0F0128010F0030C00F0AF
:105250003780CCF1040CBCF1020F18BF00F8012B11
:10526000A8BF20F8022BA1EB0C0100F029B85FEADF
:10527000C17C24BF00F8012B00F8012B48BF00F8C7
:10528000012B704701694A1C02610878704700B51C
:105290008FB0CDE901310021059105497944CDE96F
:1052A000031011466846FFF741FE0FB000BD000035
:1052B000E5FFFFFF007B00F0800070474FF0000229
:1052C00000B5134694469646203922BFA0E80C50FC
:1052D000A0E80C50B1F12001BFF4F7AF090728BFD7
:1052E000A0E80C5048BF0CC05DF804EB890028BF53
:1052F00040F8042B08BF704748BF20F8022B11F07C
:10530000804F18BF00F8012B70470000004870471D
:10531000480100207546FFF7F9FFAE4605006946D3
:10532000534620F00700854618B020B5FBF778F803
:10533000BDE820404FF000064FF000074FF0000896
:105340004FF0000B21F00701AC46ACE8C009ACE817
:10535000C009ACE8C009ACE8C0098D4670470446F6
:10536000AFF300802046FAF70DFF490050EAC12054
:1053700018BF04204A0D18BF40F0010040F2FF7230
:10538000B2EB515F08BF40F00200012808BF0520C2
:1053900070472DE9F0414F1E00EBC7010446D1E9EB
:1053A000000115461E4637F006020DD02A46334648
:1053B00000F05CFC7F1E04EBC703D3E9002300F080
:1053C0004DFA37F00602F1D1022F25D0042F13D069
:1053D000062F18BFBDE8F0812A46334600F046FC90
:1053E000D4E90A2300F03AFA2A46334600F03EFC9C
:1053F000D4E9082300F032FA2A46334600F036FC9E
:10540000D4E9062300F02AFA2A46334600F02EFC9F
:10541000D4E9042300F022FA2A46334600F026FCA1
:10542000D4E9022300F01AFA2A46334600F01EFCA3
:10543000D4E90023BDE8F04100F010BA012201F0E8
:10544000DAB900F00BBA0000024A0020110701F09F
:10545000D2B9000001FDFFFF2DE9F84F04460D46CB
:1054600021F0004000917349814211DC7249884269
:1054700001DC06D12CB120462946BDE8F84FFFF7E4
:10548000DDBF6E48002DCCBF6D496E49BDE8F88F79
:105490006D49814211DD6D498142D8BF4FF0FF3621
:1054A0006DDD20462946FFF760FF042808BFFFF79F
:1054B000CBFF20462946BDE8F88F6549654F25F0AA
:1054C0000045814233DD6449814219DD00263246C0
:1054D0004FF080432046294600F0C0F980468A46B6
:1054E00001222046294601F086F900223B4600F0C1
:1054F000C7FC4246534600F061FA04460D463EE0C2
:1055000001260022BA463B462046294600F0A6F96D
:1055100080460F46002253462046294600F0B0FC44
:1055200042463B4600F04AFA04460D4627E04B4906
:1055300081421BDDDFF828A10226002253462046C7
:10554000294600F093FB00223B4600F087F9804695
:105550000F46002253462046294600F091FC424661
:105560003B4600F02BFA04460D4608E0032622468F
:105570002B4600203B4900F021FA04460D46224606
:105580002B461046194600F071FB8B4682460246B8
:105590000B4600F06BFB07460246334888460B4635
:1055A00006217844FFF7F5FE52465B4600F05EFBAD
:1055B00082462E488B463A46434605217844FFF7FB
:1055C000E8FE3A46434600F051FB02460B46002EE9
:1055D000504659460CDA00F041F922462B4600F0BD
:1055E00045FB01B022462B46BDE8F04F00F03CBC25
:1055F00000F034F922462B4600F038FB1C4A7A446E
:1056000002EBC603D3E9002300F03AFC22462B4606
:1056100000F036FC174A7A4402EBC603D3E90023B4
:1056200000F022FC009A002AB8BF81F00041BDE8DA
:10563000F88F0000000010440000F07F182D445443
:10564000FB21F93FFB21F9BF0000DC3F0000203EB9
:105650000000F33F0000F03F0000E63F0080034001
:105660000000F83F0000F0BF921F0000501F000034
:10567000EE1E0000B61E00002DE9F04D9446CCF160
:10568000000423F000464CEA0404524F46EAD47466
:105690009A46884621F00042BC4206D8454240EA7C
:1056A000050442EAD474BC4204D9BDE8F04D624618
:1056B000FFF7C7BEAAF14055A5F17F6555EA0C0476
:1056C0000BD0022404EAAA74434DDFF810E144EA47
:1056D000D87452EA000B04D00CE0BDE8F04DFFF79F
:1056E000BBBE002C14BF012CBDE8F08D022C30D0C5
:1056F000032C32D056EA0C0B0AD0BE4220D1BA425B
:1057000009D126F0804622F080423346114617E048
:1057100000291ADB25E0DFF8C8B0FB44002C04BFE9
:10572000DBE90001BDE8F08D012C02BFDBE90001DF
:1057300081F00041BDE8F08D022C0AD0032C0CD082
:10574000BA4212D1B8F1000F0BDA23482549BDE85F
:10575000F08D28462449BDE8F08D28467146BDE805
:10576000F08D1D482149BDE8F08D921B12153C2A91
:10577000C4BF19481D490EDCBAF1000FBEBF12F1BB
:105780003C0F0020014606DB624600F017F921F0CD
:105790000041FFF761FE002C08BFBDE8F08D012C31
:1057A00004BF81F00041BDE8F08D114A114B022C7D
:1057B00007D000F065FB2A46BDE8F04D0A4B00F02B
:1057C0005FBB00F05DFB2A46BDE8F04D064B00F0E4
:1057D0004BBB00000000F07F182D4454FB2109C092
:1057E0004A1E0000FB21F9BFFB210940FB21F93FC4
:1057F000075C143326A6A13C21F00042A2F16052BE
:10580000B2F5801F01F0004328BFD2F17F6C0BD9A5
:105810005FEA001C43EAC20242EB507018BF7047B7
:1058200028BF20F001007047B2F5801FBCBF1846AA
:1058300070474FEA410C1CF5001F02D2084600F0E9
:10584000FCBE70B500F0BCFA00000089FFF7F6BF9F
:105850004FF00040A0F580007047000010B591EABD
:10586000030F48BF83F0004300F11283841A71EBE9
:10587000030C05D2121943EB0C03001B61EB0C0166
:10588000DFF824E14FEA1154A4EB135C1EEA430F46
:1058900018BF9EEA445F73D023EA0E03DCF1200EAA
:1058A00021EA045143F4801332D322FA0CFE10EBA8
:1058B0000E0023FA0CFE41EB0E01CCF1200E03FA90
:1058C0000EFE10EB0E0051F10001B1F5801FCCF17E
:1058D000200E32D201EB045112FA0EF2BDE8104054
:1058E00058BF7047401C38BF5FEA420218BF70477C
:1058F000002814BF20F0010041F100014FEA4103EC
:1059000013F5001F38BF7047A1F1C04100F0A6BADF
:10591000012A43EB0302ACF1200CDCF11F0E32BF75
:105920004FF0000E23FA0CF310EB030041EB04518F
:10593000B4EB115FD0D0A1EB045101F580114908FF
:105940005FEA300001EB04510ED350F1000038BF84
:1059500012FA0EFE08D1BDE81040C9E7401C38BF5E
:105960005FEA4202CAD1C3E7BDE810404FEA4103F3
:1059700013F5001F38BF7047A1F1C04100F06EBAA7
:105980009EEA445F08D011EA5E0FBDE8104004BFF4
:1059900001F0004100207047BDE8104070B500F0F4
:1059A0000FFA00BF64FBBE3E0000E0FF02494FF06B
:1059B000000000F0EEBE00BF0000F87F2DE9C041FE
:1059C00030B4DFF8A0C23CEA111418BF3CEA13144B
:1059D00000F0EC8081EA03051CEA111444EAD57456
:1059E00018BF1CEA131500F0C780A4EB05044FF0A4
:1059F000004545EAC12145EAC32341EA505143EA43
:105A0000525304F17F74994204F500344FEAC020E8
:105A10004FEAC22208BF904200F09C804FEA136513
:105A20000FF24016765D4FEA134506FB05F7C7F106
:105A3000807706FB07F74FEAD737A7FB0368764264
:105A4000C8F58038A7FB06CE38BFA8F1010807FBD0
:105A500008E64FF0000EA6FB028CE6FB03CEDCF15D
:105A6000000CCEF1004E38BFAEF1010EA6FB0C5873
:105A70004FF000074FF00005E6FB0E87A1FB08C6BC
:105A8000A0FB07CE16EB0E0645F10005E1FB07650E
:105A900015F1E04E7EBFA4F580345FEA46066D4105
:105AA00016F1800745F100054FEA17274FEA066611
:105AB00047EA0567A6F1DE46B6F1805F4FEA152595
:105AC0001FD9384624F0010C05EBC471BCF1FE6F00
:105AD00001EB0C1102D8F0BCBDE8008124425CBF90
